:1000000057C2000072C2000070C200006EC2000041
:100010006CC200006AC2000068C2000066C2000034
:1000200064C200000C94871360C200005EC200002E
:100030005CC200000C94401058C2000056C2000080
:1000400054C2000052C2000050C200004EC2000064
:100050004CC200004AC2000048C2000046C2000074
:1000600044C2000042C2000054686520426F6E6EB8
:1000700069652042616E6B73206F27204C6F636847
:10008000204C6F6D6F6E6400202020202020200700
:1000900020467567756520696E2044204D696E6F36
:1000A00072202D206279204A2E532E2042616368EF
:1000B000200720202020202020006F35207631329C
:1000C00020672B333267382E672B3332672D33325C
:1000D000207631342067346138207631362062381A
:1000E0002E2E3E63333262386138207631342067F9
:1000F000382E2E66233332673865333266333265E5
:1001000031367631322064382E2E642B3332643807
:100110006623382067342E2076313420672B333223
:10012000672D333267382E626F3664382076313669
:100130002065382E652B3332652D3332206534200F
:10014000763132206432723136207631362065388D
:100150002E2E652B333265386438206F35622E6F52
:100160003664382076313420642B33326331362EB6
:100170006F356238622B33326131362E6738207624
:100180003133206520652B33326431362E662338B7
:10019000672076313420672D33326231362E6F3648
:1001A00064382076313620652B333265382E2E6444
:1001B000386F356238207631342061382E2E612B2D
:1001C0003332612D333261382E2E206732672B3364
:1001D00032672D33326732002120543132304F35AF
:1001E0004C313661676166616561206461632B61D2
:1001F000646165612066613C61613C6261632361A9
:100200002064616323616461656120664F366463C5
:10021000643C622D643C61643C6720643C662B64F2
:100220003C67643C61643C622D20643C64643C65D2
:10023000643C662B643C6720643C662B643C6764CA
:100240003C61644C384D533C622D643C622D64200B
:100250004D4C652D3C67652D3C67204D53633C61DB
:10026000633C61204D4C643C66643C66204F354DD8
:1002700053622D67622D674D4C3E6323653E6323B9
:1002800065204D532061666166204D4C20676323D5
:10029000676323204D532066646664204D4C2065BF
:1002A0003C622D653C622D4F364C31367261676180
:1002B00066616561206461632361646165612066D4
:1002C000613C61613C62616323612064616323611D
:1002D000646165612066616561646163613C622D92
:1002E00061636164673C622D67206567646763676B
:1002F0003C622D67203C61673C622D6763663C6110
:100300006620646663663C622D663C61663C676697
:100310003C61663C622D653C6765206323653C62F9
:100320002D653C61653C6765203C66653C67653CC6
:1003300061643C66644F35653E65653E65663E6456
:10034000663E6420622D3E6323622D3E6323613E40
:1003500064663E6420653E65653E65663E64663E55
:1003600064653E643E63233E64623E643E63236292
:10037000203E63236167616567666520664F36646A
:10038000632364666463233C6220632334000002B9
:100390000105091E080404060505041C1C000000D4
:1003A00000000000001F1F1F1F1F1F1F2176383E67
:1003B0003E6333320021673332002165333200213E
:1003C000633332003E3E6333323E673332003E6772
:1003D00033323E3E633332000742007F4120A54264
:1003E00020437E004D617A6500456469744E6F500C
:1003F00049004564697420504944004E4F205049DB
:100400004400504944005370696E6E696E67005431
:10041000696D6572005472696D706F74004D75730B
:100420006963004D6F746F72730053656E736F7202
:1004300073004C4344004C4544730042617474653E
:1004400072790020204D656E750020204D61696E27
:10045000002020796F752100205468616E6B2000A8
:100460002D74727920697421005072657373204273
:100470000073656C6563742E0055736520422074AB
:100480006F004C31362063646567726567340050D5
:10049000726F6772616D00204D61696E0033F720E5
:1004A000526F626F740020506F6C6F6C75005E1439
:1004B00011241FBECFEFD8E0DEBFCDBF11E0A0E01A
:1004C000B1E0E0E8F6E302C005900D92AC3BB10765
:1004D000D9F712E0ACEBB1E001C01D92AA3AB10726
:1004E000E1F70E94CF0C0C94341B8ACD0E949B0D27
:1004F000BC01882777FD8095982F0E944F1282E8D3
:1005000091E00E94F01184E690E00C94CF134F929A
:100510005F926F927F928F929F92AF92BF92CF9293
:10052000DF92EF92FF920E940A14AB01BC0180910E
:10053000C9019091CA01A091CB01B091CC01892B46
:100540008A2B8B2B11F18091D1019091D201A09136
:10055000D301B091D4016A017B01C81AD90AEA0A11
:10056000FB0A8091CD019091CE01A091CF01B09175
:10057000D0018C0D9D1DAE1DBF1D8093CD019093AC
:10058000CE01A093CF01B093D0014093D1015093FD
:10059000D2016093D3017093D40182E00E9485134D
:1005A0008823F9F08091D50181111BC081E08093EF
:1005B000D5011092C9011092CA011092CB0110927C
:1005C000CC011092CD011092CE011092CF01109269
:1005D000D0010E949F10811104C08FEB93E00E9414
:1005E000BA1082E00E948513811102C01092D501D9
:1005F00080E20E948513882331F18091D601811118
:1006000022C081E08093D60181E090E0A0E0B0E0DC
:100610004091C9015091CA016091CB017091CC0108
:10062000452B462B472B19F080E090E0DC018093AE
:10063000C9019093CA01A093CB01B093CC0185EB83
:1006400093E00E94BA1080E20E948513811102C0DB
:100650001092D6016091CD017091CE018091CF01B1
:100660009091D00120EC37E249E050E00E94A619B9
:100670008AE0C82ED12CE12CF12CCA01B901A701C6
:1006800096010E94A6190E944F126091CD017091AF
:10069000CE018091CF019091D00120E63AEE40E06A
:1006A00050E00E94A619CA01B901A70196010E9453
:1006B000A6190E944F128AE30E9486116091CD0113
:1006C0007091CE018091CF019091D00128EE422E01
:1006D00023E0522E612C712CA30192010E94A619D5
:1006E0006CE3862E912CA12CB12CCA01B901A50175
:1006F00094010E94A619A70196010E94A619CA0199
:10070000B9010E944F126091CD017091CE0180918C
:10071000CF019091D001A30192010E94A619CA01B4
:10072000B901A50194010E94A619A70196010E9492
:10073000A619B62E0E944F128EE20E948611609179
:10074000CD017091CE018091CF019091D00124E62E
:1007500030E040E050E00E94A619CA01B901A701AB
:1007600096010E94A6190E944F126091CD017091CE
:10077000CE018091CF019091D001A70196010E94F6
:10078000A619CA01B901A70196010E94A6190E94E3
:100790004F128091D701B816A1F08091CD019091B0
:1007A000CE01A091CF01B091D001892B8A2B8B2B48
:1007B00041F00E949F10811104C08CEA93E00E94D6
:1007C000BA10B092D701FF90EF90DF90CF90BF901A
:1007D000AF909F908F907F906F905F904F90089513
:1007E0000F931F930E940A140091C4011091C50138
:1007F0002091C6013091C701601B710B820B930BD6
:100800006B3F71058105910550F100E010E080918A
:10081000C801F801E80FF11D87FDFA95E859FF4F6F
:1008200084910E9486110F5F1F4F0830110579F7E0
:100830000E940A146093C4017093C5018093C6019D
:100840009093C7018091C8018F5F8093C801992759
:1008500087FD90950896809710F01092C8010E942D
:100860009F10811104C08AEB90E00E94BA1084E6C8
:1008700090E00E94CF131F910F910895CF93DF93C3
:1008800082E00E9485132091BE013091BF01882330
:10089000E1F0232B81F488EC90E00E94CF1382E0FA
:1008A0000E948513811107C081E09091C2019111CE
:1008B00080E08093C2018091BE019091BF010A96B1
:1008C0009093BF018093BE0106C02451310930933B
:1008D000BF012093BE0180E20E9485132091BC01DC
:1008E0003091BD018823E1F0232B81F488EC90E066
:1008F0000E94CF1380E20E948513811107C081E01E
:100900009091C301911180E08093C3018091BC015B
:100910009091BD010A969093BD018093BC0106C0E1
:10092000245131093093BD012093BC018091BE0157
:100930009091BF0197FF04C01092BF011092BE01B9
:100940008091BE019091BF018F3F910539F034F045
:100950008FEF90E09093BF018093BE018091BC0126
:100960009091BD0197FF04C01092BD011092BC018F
:100970008091BC019091BD018F3F910539F034F019
:100980008FEF90E09093BD018093BC018091BE01F8
:100990009091BF012AE130E0B9010E947119605CB9
:1009A0007E4FFB01D0818091BC019091BD01B901C6
:1009B0000E947119605C7E4FFB01C0818D2F0E94E7
:1009C00086118091C201882311F081E601C081E483
:1009D0000E9486118D2F0E94861160E085E00E94A2
:1009E0006E128C2F0E9486118091C301882311F012
:1009F00083E601C083E40E9486118C2F0E94861139
:100A00002091BC013091BD018091C301882319F070
:100A10008FEF9FEF02C081E090E0289FB001299FF7
:100A2000700D389F700D11242091BE013091BF01CF
:100A30008091C201882319F08FEF9FEF02C081E0FF
:100A400090E0AC01249FC001259F900D349F900D34
:100A500011240E94271382E390E00E94CF13DF91BC
:100A6000CF910895AAE0B0E0E8E3F5E00C94CB194B
:100A700080E20E948513882311F060E001C061E0EC
:100A8000CE0101960E9422148E010F5F1F4F7E013E
:100A90008BE0E80EF11C79ECC72ED12CF801819186
:100AA00091918F01B6010E945D19605C7E4FFB0140
:100AB00080810E9486110E151F0581F780E20E9439
:100AC0008513882319F085E891E002C089E891E058
:100AD0000E94F01184E690E00E94CF132A96E8E08D
:100AE0000C94E71960E080E00E946E1260910101B1
:100AF00070E080E090E00E944F1282E00E94851337
:100B0000882341F088EC90E00E94CF13809101018E
:100B100085500CC080E20E948513882349F088EC40
:100B200090E00E94CF13809101018B5F80930101BF
:100B300080910101843640F460E082E00E946E12F0
:100B40008FE891E00C94F011089560E080E00E943D
:100B50006E126091020170E080E090E00E944F12FE
:100B600082E00E948513882341F088EC90E00E9487
:100B7000CF138091020185500CC080E20E94851342
:100B8000882349F088EC90E00E94CF138091020105
:100B90008B5F8093020180910201843640F460E013
:100BA00082E00E946E128FE891E00C94F01108959B
:100BB000883058F421E030E001C0220F8A95EAF72E
:100BC000AAE2B0E0EBE2F0E023C08E3068F490E0FF
:100BD000089721E030E001C0220F8A95EAF7A4E2ED
:100BE000B0E0E5E2F0E014C0853168F490E00E97E3
:100BF00021E030E001C0220F8A95EAF7A7E2B0E0D9
:100C0000E8E2F0E005C020E0A0E0B0E0E0E0F0E0E5
:100C10006F3F19F48081822709C0662319F0808113
:100C2000822B04C09081822F8095892380838C91B0
:100C3000822B8C930895682F81E0BACF682F87E0CC
:100C4000B7CF0F931F93CF93DF930E940A14062F01
:100C500080917C008F7D80937C001FD7BC0180E059
:100C600090E00E944F128DE891E00E94F01116C0B2
:100C700014D7EC014FE068EC70E00E94A60E2AE069
:100C80001202C0011124C817D90724F480E0D3DF71
:100C900081E003C081E0CFDF80E0D0DF0E940A1452
:100CA000162F101B143624F3DF91CF911F910F9153
:100CB0000895809100018F5F809300010895F99954
:100CC000FECF92BD81BD60BDFA9AF99A0895F99957
:100CD000FECF92BD81BDF89A80B5089560E08EE99F
:100CE00093E00E94841161E08FE993E00E948411F7
:100CF00062E080EA93E00E94841163E081EA93E07D
:100D00000E94841164E082EA93E00E94841165E00D
:100D100083EA93E00E94841166E084EA93E00E94F3
:100D2000841167E08EE893E00E9484110C94E31133
:100D3000CF9382E30E946313C82F81FF03C08FEB20
:100D400093E007C084FF03C08AEB93E002C085EB09
:100D500093E00E94BA108C2F0E9475138C2FCF91B4
:100D60000895AAE0B0E0E7EBF6E00C94CB198C0113
:100D7000E5E0DE2EFAE0CF2EA5E6EA2EF12CE6E342
:100D8000F1E0DE0111968C2D01900D928A95E1F72C
:100D9000F801819191918F01B7010E945D1981E065
:100DA00090E08C0F9D1F680F791FFB0180810E94CE
:100DB0008611DA9421F72A96E8E00C94E719AAE064
:100DC000B0E0E5EEF6E00C94CF1980ED97E00E94DC
:100DD0005C1484DF1BC0AFD68C010E94E311B80104
:100DE000882777FD8095982F0E944F1282E891E026
:100DF0000E94F01161E080E00E946E1281E991E0B2
:100E00000E94F01184E690E00E94CF1380E10E94DE
:100E10008513882301F380E10E94751388EE93E027
:100E20000E94CF130CEE1FEF0832110528F068ED79
:100E30007FEF88E290E004C068E270E088ED9FEF09
:100E40000E94271381E00E94271484E190E00E9411
:100E5000CF130F5F1F4F0C33110531F760E070E0C7
:100E600080E090E00E94271318C061E0CE01019657
:100E70000E942B148C010E94E311B80180E090E0E5
:100E80000E944F1261E080E00E946E12CE01019636
:100E900068DF84E690E00E94CF1380E10E94851312
:100EA000882319F380E10E9475130E94E31189E9F8
:100EB00091E00E94F01182E894E00E94BA100E9432
:100EC0009F108111FCCF0FD42A96E4E00C94EB190B
:100ED000AAE0B0E0EEE6F7E00C94CF1980ED97E0E1
:100EE0000E945C14FBDE1BC026D68C010E94E3111D
:100EF000B801882777FD8095982F0E944F1282E8CD
:100F000091E00E94F01161E080E00E946E1281E9A0
:100F100091E00E94F01184E690E00E94CF1380E1FE
:100F20000E948513882301F380E10E94751388EEE7
:100F300093E00E94CF130CEE1FEF0832110528F04A
:100F400068ED7FEF88E290E004C068E270E088ED31
:100F50009FEF0E94271381E00E94271484E190E014
:100F60000E94CF130F5F1F4F0C33110531F760E064
:100F700070E080E090E00E94271318C061E0CE018D
:100F800001960E942B148C010E94E311B80180E0AD
:100F900090E00E944F1261E080E00E946E12CE014C
:100FA0000196DFDE84E690E00E94CF1380E10E948C
:100FB0008513882319F380E10E9475130E94E311C1
:100FC00089E991E00E94F01182E894E00E94BA1051
:100FD0000E949F108111FCCF61E0CE0101960E941A
:100FE0002B149C0180910101283E93E0390750F4B5
:100FF000682F70E080E090E00E94271381E01BDE04
:1010000080E012C0283B3B4038F4682F70E090E04D
:101010000E94271381E006C060E070E090E00E942B
:10102000271380E008DE81E009DED6CFAEE0B0E035
:10103000ECE1F8E00C94C31980ED97E00E945C1499
:101040004DDE1BC078D58C010E94E311B8018827C2
:1010500077FD8095982F0E944F1282E891E00E94C0
:10106000F01161E080E00E946E1281E991E00E943F
:10107000F01184E690E00E94CF1380E10E94851376
:10108000882301F380E10E94751388EE93E00E94AB
:10109000CF130CEE1FEF0832110528F068ED7FEF3B
:1010A00088E290E004C068E270E088ED9FEF0E9463
:1010B000271381E00E94271484E190E00E94CF135F
:1010C0000F5F1F4F0C33110531F760E070E080E0D7
:1010D00090E00E94271318C061E0CE0101960E94A3
:1010E0002B148C010E94E311B80180E090E00E9473
:1010F0004F1261E080E00E946E12CE01019631DE57
:1011000084E690E00E94CF1380E10E94851388233B
:1011100019F380E10E9475130E94E31189E991E0BF
:101120000E94F01182E894E00E94BA100E949F1081
:101130008111FCCFC12CD12C7601A12CB12C50E116
:10114000452E57E2552E612C712C64E1862E912C90
:1011500001C0580161E0CE0101960E942B148C0160
:10116000005D1740C801AA2797FDA095BA2FC80EA9
:10117000D91EEA1EFB1EC701B601A30192010E94FF
:10118000A6192B873C874D875E87C801B4010E9452
:1011900071198B859C85680F791F98012A193B0965
:1011A000C901880F991F820F931F97FD01969C011B
:1011B000359527958091020190E0260F371F821701
:1011C00093070CF49C0144275527481B590B2417FF
:1011D00035070CF49A01BC0137FF03C0820F931F3F
:1011E00002C0621B730B0E942713B3CFA4E1B0E0CF
:1011F000ECEFF8E00C94C31980ED97E00E945C14CA
:101200006DDD8EEC93E0B6D71BC095D48C010E94A7
:10121000E311B801882777FD8095982F0E944F121F
:1012200082E891E00E94F01161E080E00E946E127D
:1012300081E991E00E94F01184E690E00E94CF13D2
:1012400080E10E948513882301F380E10E947513D9
:1012500088EE93E00E94CF130CEE1FEF08321105C9
:1012600028F068ED7FEF88E290E004C068E270E06B
:1012700088ED9FEF0E94271381E00E94271484E1EC
:1012800090E00E94CF130F5F1F4F0C33110531F711
:1012900060E070E080E090E00E94271318C061E0F9
:1012A000CE010B960E942B148C010E94E311B80111
:1012B00080E090E00E944F1261E080E00E946E1298
:1012C000CE010B964EDD84E690E00E94CF1380E1C4
:1012D0000E948513882319F380E10E9475130E94F0
:1012E000E31189E991E00E94F01182E894E042D78D
:1012F00026D78111FDCF0E940A148B01712C612C1D
:10130000E4E6CE2ED12C812C99249394A7E35A2E77
:10131000AA24AA94B12C0E940A147B0161E0CE0198
:1013200001960E942B1444244394803D974008F07A
:10133000412C80E080DC442059F060FC09C07394AB
:1013400070FE06C081E077DC6701C01AD10A870110
:10135000E01AF10A9E2D80E0B6010E945D196056E8
:101360007F4F77276038710524F0C401861B970BE7
:10137000BC01569EC001579E900D1124880F892FE5
:10138000881F990BBC016A197B0988539F4F0E94E3
:101390002713642CC0CFA2E0B0E0E1EDF9E00C949B
:1013A000CF198B0189839A830E94E31189819A81E5
:1013B0000E94FF1161E080E00E946E12C8010E944D
:1013C000FF1188EE93E00E94CF132296E4E00C9484
:1013D000EB198091C0019091C10179DC80930201E9
:1013E00080911D0190911E0172DC8093010180EDBE
:1013F00097E00E945C1472DC8EEC93E0BBD6E3D7DE
:101400008DE994E0FCD761E080E00E946E1289E6ED
:1014100094E0F5D78DDC84FFFDCF84EC93E0AAC681
:10142000CF93DF93C9E1D0E08AE090E00E94CF1330
:1014300080E10E948513811103C02197A9F701C0A3
:1014400081E0DF91CF91089584EA91E085D68DE91E
:1014500091E0C6D781E0EFDBE3DF811115C0EBDB64
:10146000DFDF811111C083EA91E076D660E080E091
:101470000E946E1288EA91E0B3D781E0DFDBD0DF13
:10148000811102C0DBDBCCCF08951F93CF93DF9394
:10149000CCE0D0E098D761E080E00E946E128BED46
:1014A00093E0ADD760E080E00E946E12E091D80139
:1014B000F091D901EE0FFF1FED5FFE4F808191810A
:1014C0009ED781E00E94761282E30E9485138111EB
:1014D000FBCF82E30E946313182F81FF09C08FEBBB
:1014E00093E048D68091D8019091D90101975DC0D1
:1014F00084FF51C0FFD767D78AEB93E03BD6812F9B
:101500000E94751315C061E080E0E8D788ED93E094
:1015100076D760E080E0E2D7E091D801F091D90180
:10152000EE0FFF1FE55BFE4F0190F081E02D099566
:1015300080E10E948513882331F38091D801909136
:10154000D9018A30910539F4609102018091C0017E
:101550009091C10108C00B9739F46091010180910D
:101560001D0190911E01ABDB60E070E080E090E037
:101570000E9427131BD61092BF011092BE01109239
:10158000BD011092BC0180E056DB80E057DB8AEBA6
:1015900093E0F0D524C085FF0CC085EB93E0EAD53D
:1015A0008091D8019091D90101969093D9018093AF
:1015B000D8018091D8019091D90197FF04C0D093B0
:1015C000D901C093D8018091D8019091D9010D978C
:1015D0000CF460CF1092D9011092D8015BCFDF914B
:1015E000CF911F91089580911F018F5F80931F01FC
:1015F0000895E091DA01F0E0E552FE4F1082E3D663
:101600008BED91E0EDD68091DA01893030F061E028
:1016100080E064D783EE91E0E3C60895811106C0AF
:10162000611106C0442331F082E508958CE40895E9
:1016300083E5089582E40895CF93C091DA01C33021
:1016400008F44FC02C2F30E0B90165527E4FFB01EA
:1016500032978081823409F044C043E050E080E05A
:1016600090E0FB01E40FF51F3497E081EC3441F08A
:10167000E23519F0E23449F406C0865A9F4F05C09E
:10168000825F9E4F02C08C549F4F4150510949F7D1
:1016900068E671E00E9471198A35910581F01CF4A9
:1016A000892B41F01BC0843B910571F08E30914035
:1016B000A9F40FC0F901E852FE4F83E50EC0F9010D
:1016C000E852FE4F82E509C0F901E852FE4F82E47C
:1016D00004C0F901E852FE4F8CE48083C250C093ED
:1016E000DA01CF910895ABE0B0E0E9E7FBE00C94BC
:1016F000CB19B9D062E370E082E390E0A8D782E32F
:1017000090E00E94CF1361E0CE0101960E942B145D
:1017100011E029813A812536310508F410E041E0D5
:1017200029853A852536310508F440E068E270E005
:1017300088E290E04B878BD788EC90E00E94CF1333
:1017400061E0CE0101960E942B142B813C814B85D8
:10175000293C310560F42D813E81293C3105A0F4FE
:101760002F813885293C310578F460E00EC0293599
:10177000324050F02D813E812935324028F02F81B2
:1017800038852935324090F461E0812F47DF182FEA
:10179000E9D08091DA01E82FF0E0E552FE4F1083A6
:1017A0008F5F8093DA0148DF24DFA3CF80EDC82E5E
:1017B00087E0D82EE12CF12C60E070E080E090E032
:1017C00046D78EEA91E0C8D41AC00E940A14A70135
:1017D00096010E948419683E73408105910558F472
:1017E000F2D584EB91E0FCD561E080E077D681E929
:1017F00091E0F6D501C0FDDE8EE190E0D0D780E12A
:1018000084D7882311F380E180D78111FCCF88EE43
:1018100093E0C5D70BED11E015C025D062E370E071
:1018200082E390E014D782E390E0B9D768E270E0F9
:1018300088E290E00CD788EC90E0B1D7F801819174
:101840008F0190D098012B5D31408091DA0190E0BA
:101850002817390714F307D0AFCF809120018F5F8D
:10186000809320010895AAE0B0E0E9E3FCE00C9445
:10187000C119C12CD12C7601A12CB12C50E1452EDF
:1018800057E2552E612C712C64E1262E312C7CE31D
:10189000872E912C61E0CE010196DDD78C01005D91
:1018A0001740C801AA2797FDA095BA2FC80ED91EC8
:1018B000EA1EFB1EC701B601A30192010E94A619F0
:1018C000C8018A199B09FC01EE0FFF1FE80FF91FE1
:1018D000F7FD3196F595E795E20FF31FC801B101C9
:1018E0000E947119E60FF71FED33F10574F4E43C23
:1018F0008FEFF8071CF0F7FD03C009C0E4ECFFEF21
:101900006CE370E0CF01CC9607C0ECE3F0E0B401EB
:101910006E1B7F0B8CE390E09AD68B819C81843682
:10192000910550F48D819E818436910528F48F8134
:1019300098858436910560F089819A81893C91056A
:1019400038F489859A85893C910510F45801A2CF15
:101950002A96E2E10C94DD19809121018F5F80933A
:10196000210108958C3429F0823541F08234B1F49C
:101970000DC060E570E080EB9FEF04C060EB7FEF8F
:1019800080E590E064D688EC90E007C060EB7FEFE4
:1019900080E590E05CD680E991E001C7089519DD0B
:1019A00074DDFECFECE7F0E080818F7D80830895C9
:1019B000811101C0F7CF80917C00806280937C0010
:1019C000089580917C0085FB882780F90895F9DFD0
:1019D000882321F02091790030E004C02091780024
:1019E00030917900C90108958032A0F497E890936E
:1019F0007A0090917C00662311F0906C02C09F7772
:101A00009064907E982B90937C0080917A00806403
:101A100080937A000895A0E0B0E0E1E1FDE00C944D
:101A2000CB19EB0160E0E0DF80917A0086FDFCCF0E
:101A30008E01C12CD12C760180917A008064809334
:101A40007A0080917A0086FDFCCFC1DFC80ED91ED6
:101A5000E11CF11C0150110979F7CE01969587958B
:101A6000C034D10538F48C0D9D1DBE010E945D1956
:101A7000CB010EC0A7019601280F391F411D511D32
:101A8000CA01B9019E0140E050E00E948419C901D9
:101A9000CDB7DEB7E8E00C94E71964E170E087E0C9
:101AA000BACFCF92DF92EF92FF92A0912201B09134
:101AB00023019C010E9435196B017C0182DF882380
:101AC00059F0C701B60161587F4F8F4F9F4F2FEFDD
:101AD00030E040E050E00AC0C701B60161507E4FDF
:101AE0008F4F9F4F2FEF33E040E050E00E9484196A
:101AF000C901FF90EF90DF90CF9008958CDFD1CF98
:101B00001F93CF93DF935DDF182F4CDF6AE070E007
:101B100086E0F4DFEC01812F4BDF9E01220F331FA3
:101B20002C0F3D1F2F5F3F4F36952795C901DF9141
:101B3000CF911F910895E4CF089590914702E091CD
:101B40003F02F0914002992311F0849101C08081FD
:101B5000282F21542A3110F4805E0895803269F4D0
:101B600020913F0230914002A9014F5F5F4F509397
:101B7000400240933F02232B11F708951F93CF9308
:101B8000DF93DBDFC0E0D0E01AE015C09E01129FBA
:101B9000E001139FD00D1124C80FD11D87FDDA95E8
:101BA000E09780913F02909140020196909340020D
:101BB00080933F02C2DF982F90539A3038F3CE01C2
:101BC000DF91CF911F91089510926F0083E280936F
:101BD000800081E1809381001092820080E197E291
:101BE000909389008093880010928B0010928A0055
:101BF000229A78940895AF92BF92DF92EF92FF926B
:101C00000F931F93CF93DF935C017B01D42E8091C0
:101C10004102811104C081E080934102D5DF10921E
:101C20002401B7FE04C0E894B7F81AE001C011E03F
:101C300000918100087F28EC129FC00111248A15B1
:101C40009B05C8F4E50161E1A61667E2B60610F04F
:101C5000C0E1D7E2BE017695679580E090E06058DC
:101C6000794687469F4F9E0140E050E00E948419CC
:101C70005901016022C088E2189F802D1124C82FCD
:101C800070E0D72FCA15DB0508F4E501BE01769593
:101C900067959E0140E050E080E090E01A3029F422
:101CA000605E734481449F4F04C060537D4E8C4EF0
:101CB0009F4F0E948419590102601A3039F4CE01F5
:101CC00005966AE070E00E945D19EB019701C83E3D
:101CD00083E0D80749F0DE010E94351928EE33E091
:101CE00040E050E00E94A61910926F00009381001E
:101CF000B0928900A092880040918800509189009C
:101D00006D2D603108F06FE080E190E0861B910955
:101D1000BA0102C0769567958A95E2F770938B00B9
:101D200060938A00309343022093420286B38FEF80
:101D300086BB81E080936F00DF91CF911F910F915F
:101D4000FF90EF90DF90BF90AF90089554CF08952B
:101D5000CF93DF93EB018F3F11F0411105C040E0BD
:101D6000BE0188EE93E043C0813130F0582F5051CE
:101D7000503618F05FE501C050E0852F6CE00E94FE
:101D80005119682F74EF760390011124250F311D2E
:101D90002C30310540F4F901EE0FFF1FEB59FE4FD7
:101DA0002081318102C020E030E0873081F0082EB0
:101DB00002C0220F331F0A94E2F7823028F0C901D3
:101DC00005966AE070E00CC0C90190580CC0C901CA
:101DD00026E0880F991F2A95E1F7029665E070E0EA
:101DE0000E945D19CB01403108F04FE0BE0103DFD6
:101DF000DF91CF910895A2E0B0E0E1E0FFE00C9424
:101E0000C3199090250180914502882361F060916B
:101E10004602662341F040E070E088EE93E0EBDE9E
:101E20001092460229C170ECA72E7DE5B72EEAE09C
:101E30007E2E66246394F4E08F2EA0EDCA2EA7E0D8
:101E4000DA2EB4E0EB2EF12C04EF11E08FE0482EF7
:101E5000512C73DE20913F02309140022F5F3F4FA3
:101E60003093400220933F028636C9F1B4F48236A3
:101E700009F4A1C074F48E3331F13CF4813209F4D9
:101E80007BC08C3309F08FC020C0813609F08BC035
:101E90008FC08436F1F004F51AC08F3609F445C0BE
:101EA00044F48C3611F18D3659F1873609F07BC038
:101EB00019C0843709F441C0863709F457C0823706
:101EC00009F071C037C09394C4CF9A94C2CF10E088
:101ED00032C010E082E071C010E084E06EC010E01B
:101EE00085E06BC010E087E068C048DEBC019093DD
:101EF00027018093260180912801909129012FC00C
:101F00001CDE8C3619F41092450204C06092450222
:101F10001092460220913F02309140022F5F3F4FC6
:101F20003093400220933F0294CF28DE982E809376
:101F300025018FCF11E080E040C020DEBC01C5014B
:101F40000E945D19769EC001779E900D112490939A
:101F500029018093280160912601709127010E9438
:101F60005D1970932B0160932A0173CF07DE909364
:101F70002D0180932C016DCF80922501D0922901F3
:101F8000C0922801F0922701E092260110932B01C4
:101F900000932A0150922D0140922C01109245028B
:101FA00064E0962E56CF1092400210923F0264C019
:101FB00010E089E002C010E08BE0082F9CE0999EC1
:101FC000000D1124BADD8B3209F44AC0833269F462
:101FD00047C020913F02309140022F5F3F4F309326
:101FE000400220933F020150A8DD8D3291F36091B1
:101FF0002A0170912B018153883048F4E090280128
:10200000F0902901BBDDBC01C7010E945D197B0175
:102010000CC020913F02309140022F5F3F4F309320
:10202000400220933F026E0D7F1DF694E794698372
:102030007A8383DD69817A818E3259F380914502FA
:10204000882339F09B013695279520934602621B21
:10205000710940912C0111110FEF802F79DE0CC016
:1020600020913F02309140022F5F3F4F309340025A
:1020700020933F020F5FA6CF2296E0E10C94DF1978
:102080001F920F920FB60F9211242F933F934F93ED
:102090005F936F937F938F939F93AF93BF93EF93D0
:1020A000FF9380914202909143029C01215031099B
:1020B0003093430220934202892B09F510926F005E
:1020C000789480918100887F81608093810080E195
:1020D00097E2909389008093880010928B00109271
:1020E0008A0081E08093240180913F029091400218
:1020F000892B29F080914402811101C07CDEFF917F
:10210000EF91BF91AF919F918F917F916F915F916F
:102110004F913F912F910F900FBE0F901F901895E8
:1021200080912401882349F081E020913F02309181
:102130004002232B19F480E0089581E00895F0CF48
:10214000089510926F009093400280933F02109286
:102150004702109246024FCEF4CF089510926F00BE
:102160009093400280933F0281E080934702109257
:10217000460241CEF3CF089510926F00E1E8F0E0FF
:102180008081887F8160808380E197E290938900DD
:102190008093880010928B0010928A0081E08093D7
:1021A00024011092400210923F020895E5CF089555
:1021B00081E090E06F9364E06A95F1F76F91019789
:1021C000C9F708950F931F93CF93DF931AB15798D0
:1021D0005A98289AC0E0D0E0EBDF5C9AE9DF09B1B9
:1021E0005C98E6DF5C9AE4DF5C9807FF11C02496F8
:1021F000AE0160E070E08091480290914902A091A8
:102200004A02B0914B02481759076A077B0720F32F
:102210001AB9DF91CF911F910F91089595B1282F91
:10222000217030E0220F331F482F467068E0469F30
:10223000A0011124242B9D7C292B25B99BB18870EA
:102240008295807F9F77892B8BB95C9AB1DF5C98F0
:10225000AFCFA0E0B0E0EFE2F1E10C94CC19C82FD1
:10226000D62EE42E8091A202811104C081E08093D9
:10227000A20251D0A7DF14B1D5B1FAB00BB12898A2
:10228000DD2011F05A9A01C05A9894B1926394B922
:10229000579A81E0E81621F08C2F82958F70BEDF6F
:1022A0008C2F8F70BBDFFAB80BB914B9D5B9CDB785
:1022B000DEB7E7E00C94E81942E060E0CACF42E004
:1022C00061E0C7CFA1E0B0E0E8E6F1E10C94CD1900
:1022D0008C01660F660F660FE12CF12C8E2D860F98
:1022E00080646983E9DFF801EE0DFF1D8491E7DF6B
:1022F0008FEFE81AF80A6981E8E0EE16F10471F749
:102300002196E6E00C94E919DDCF0895D8CF089521
:1023100041E060E09ECF80E197E2A0E0B0E08093F2
:10232000480290934902A0934A02B0934B02529AFA
:10233000209A549A8EE190E032D283E0E9DF86E081
:1023400090E02DD283E0E4DF82E090E028D283E0C9
:10235000DFDF82E090E023D282E0DADF82E090E00B
:102360001ED288E2A9DF88E0A7DF81E0A5DF86E052
:10237000A3DF8CE0A1CF81E09FDF80914E0290919E
:102380004F02892BF9F060E0A0E208C0E0914E0214
:10239000F0914F02E20FF31FA0836F5F262F30E012
:1023A00070912E0180912F0190E00197789FA001FC
:1023B000799F500D11242417350744F310924C02D5
:1023C00010924D020895D7CF0895CF93DF93EC017B
:1023D00001C075DF89918111FCCFDF91CF91089504
:1023E000F4CF0895CF93DF93EC0102C068DF21960C
:1023F000FE0184918111FACFDF91CF910895F2CF40
:102400000895AAE0B0E0E6E0F2E1C5C79B01AC01A7
:102410001AE06AE0C62ED12CE12CF12C022FCA0161
:10242000B901A701960170D71150E1E0F0E0EC0F7F
:10243000FD1FE10FF11D005D8AE0289F00191124A6
:102440000083211531054105510541F709C0E1E03F
:10245000F0E0EC0FFD1FE10FF11D808130DF1F5F09
:102460001A30A8F32A96E8E0B2C7CF92DF92EF9233
:10247000FF926B017C0197FF0AC0F094E094D09426
:10248000C094C11CD11CE11CF11C8DE218DFC701F6
:10249000B601B7DFFF90EF90DF90CF900895E5CFC2
:1024A0000895A5E0B0E0E6E5F2E17AC7182F80E8EC
:1024B000898380EC8A8384E98B8384ED8C83FE019D
:1024C000E60FF11D8181810F6D83F6DE10934C02C2
:1024D0006D8160934D022596E3E07EC7E2CF0895BB
:1024E000813011F48FE001C08EE0E6CEF9CF08957F
:1024F0008CE0E2CEFDCF0895883058F421E030E042
:1025000001C0220F8A95EAF7AAE2B0E0EBE2F0E020
:1025100023C08E3068F490E0089721E030E001C0DD
:10252000220F8A95EAF7A4E2B0E0E5E2F0E014C0F9
:10253000853168F490E00E9721E030E001C0220F71
:102540008A95EAF7A7E2B0E0E8E2F0E005C020E013
:10255000A0E0B0E0E0E0F0E06F3F19F48081822776
:1025600009C0662319F08081822B04C09081822FDC
:102570008095892380838C91822B8C93089583EF9F
:102580008093B00084BD82E08093B10085BD10923D
:10259000B4001092B30018BC17BC60E086E0ACDF5A
:1025A00060E085E0A9DF60E08BE0A6DF60E083E02B
:1025B000A3CF8091A302811104C081E08093A30284
:1025C000DECF0895CF93DF93EC01F3DFD7FF05C093
:1025D000D195C195D10981E001C080E0CF3FD105FF
:1025E00019F014F0CFEFD0E0882319F018BCC7BD64
:1025F00002C0C8BD17BCDF91CF910895CF93DF9380
:10260000EC01D7DFD7FF05C0D195C195D10981E095
:1026100001C080E0CF3FD10519F014F0CFEFD0E03A
:10262000882329F01092B400C093B30004C0C09373
:10263000B4001092B300DF91CF910895CF93DF9350
:10264000EB01C0DFCE01DADFDF91CF910895F6CF45
:10265000089584B18D7C84B985B1826385B985E0A4
:1026600090E06F9364E06A95F1F76F910197C9F775
:1026700008958091A402811104C081E08093A40296
:10268000E8CF08951F93CF93DF93182FF2DFC12F68
:10269000D0E023B130E0209530952C233D23232B2F
:1026A000C1F38AE090E07BD023B130E020953095F3
:1026B0002C233D23232B69F383B180958123DF9164
:1026C000CF911F910895DECF0895CF93C82FD1DF0A
:1026D00083B18C23E9F38AE090E061D083B18C234D
:1026E000B9F383B18C23CF910895EFCF0895A1E082
:1026F000B0E0ECE7F3E155C68983BBDF93B1909579
:10270000898189232196E2E068C6F1CF08952F924E
:102710008F939F932FB68091570290915802019604
:10272000809357029093580290E080915902891F3C
:1027300080935902909151029C5F90935102809135
:10274000500280519742C0F0909351028093500202
:10275000809152029091530201968093520290937D
:10276000530290E080915402891F8093540280911B
:102770005502891F809355022FBE9F918F912F90F4
:10278000189528EE33E008C0F9016F9364E06A956C
:10279000F1F76F913197C9F70197B0F70895F1CF2D
:1027A0000895E0E7F0E080818E7F8083A0EBB0E0C9
:1027B0008C9183608C93A1EBB0E08C91807F8C93A3
:1027C0008C9182608C93B89A8081816080837894A8
:1027D00008958091A502811104C081E08093A50233
:1027E000E0CF08950F931F93F4DFE0E7F0E08081DE
:1027F0008E7F8083009152021091530220915402E7
:1028000030915502808181608083B801C9011F9198
:102810000F910895E7CF0895DCDFE0E7F0E08081D5
:102820008E7F8083109252021092530210925402B3
:1028300010925502109251021092500280818160D4
:1028400080830895462FBC018AE592E07CC2682F00
:102850008AE592E0CEC4462F20E0BC018AE592E0F2
:1028600072C30F93CF93DF9300D000D01F92CDB7E8
:10287000DEB79C0185E0EDE7F1E0DE011196019005
:102880000D928A95E1F7662311F00FEF01C003E185
:1028900045E0BE016F5F7F4F8AE592E0ADD08AE5EB
:1028A00092E083D0B9DF0F900F900F900F900F90B0
:1028B000DF91CF910F91089560E0D3CF8AE592E048
:1028C000BAC46F9364E06A95F1F76F910197C9F705
:1028D0000895FC01118210821382128215821482E3
:1028E0001682683068F489E290E0918380838BE2FD
:1028F00090E0938382838AE290E09583848323C06F
:102900006E3080F483E290E09183808385E290E0F2
:102910009383828384E290E09583848370E068509F
:10292000710911C06531B0F486E290E09183808333
:1029300088E290E09383828387E290E095838483AA
:1029400070E06E50710981E090E001C0880F6A95D7
:10295000EAF786830895A7E0B0E0E0EBF4E11FC555
:102960008C01FC0111821082138212821582148262
:1029700017821682613118F080E1808702C0FC0165
:102980006087F801208B642FCE010196A2DF8F8132
:10299000F80181878B819C81938782878D819E81BD
:1029A000958784872796E4E016C5FC01A485B58544
:1029B000109771F08C919185892B8C93A285B385AA
:1029C0009C918185809589238C9388EC90E079CFC8
:1029D0000895FC01A485B585109769F08C919185C7
:1029E000892B8C93A285B3858C919185892B8C93AF
:1029F00088EC90E066CF0895A7E0B0E0E1E0F5E173
:102A0000C3C47C014B01642F6901402F20E0A3DF88
:102A1000570181E4A80EB11CF5011082D701AE5B0D
:102A2000BF4F1C9287010D5B1F4FF8011082F70109
:102A3000D786C686512C6D0128C0652C712CF401F7
:102A4000E60DF71D6081CE01019643DF2F81F7016E
:102A5000E60DF71D218B89819A81F301EE0FFF1F8F
:102A6000EE0DFF1D92A381A38332910511F4F501B0
:102A700008C08632910511F4F60103C0899721F44C
:102A8000F8018081822B80835394F701808558164A
:102A9000A0F22796EFE094C4A0E0B0E0E1E5F5E114
:102AA00075C4EC015B01FC01EF5BFF4F8080FC0112
:102AB000EE5BFF4F7080FC01ED5BFF4F908080E08C
:102AC00008C0F501E80FF11DE80FF11D1182108219
:102AD0008F5F98858917A8F384B16E0191E4C90EC0
:102AE000D11CF6019081892B84B987B17E01F2E473
:102AF000EF0EF11CF7019081892B87B98AB18E0105
:102B00000D5B1F4FF8019081892B8AB985B1F601C1
:102B10009081892B85B988B1F7019081892B88B97B
:102B20008BB1F8019081892B8BB98AE090E0C9DEE6
:102B300094B1F60180818095892384B997B1F7011A
:102B400080818095892387B99AB1F8018081809529
:102B500089238AB995B1F60180818095892385B949
:102B600098B1F70180818095892388B99BB1F801DC
:102B70008081809589238BB9E090B000D090B1001E
:102B80008091B00083608093B00082E08093B100B8
:102B90004091B20080E090E032C0C090B2002C2D95
:102BA000241B820F911D03B1081146C0F6B0F71027
:102BB00043C029B1291140C01FC0212F30E0A90115
:102BC000440F551FF501E40FF51F60817181672BDC
:102BD00079F4DE01A40FB51F91960D90BC91A02D44
:102BE0004C91DE01A20FB31F51962C91422349F163
:102BF0001F5F2885121708F37F2C802E4C2D2E8501
:102C00003F858217930748F2E092B000D092B1005E
:102C100020E00EC0F501E20FF11DE20FF11D8081F1
:102C20009181892B21F48E859F85918380832F5FED
:102C30008885281778F308C003B1F6B099B010E082
:102C4000D8CF91838083D4CFCDB7DEB7EDE0BAC3C0
:102C5000EF92FF920F931F93CF93DF93FC019B01A1
:102C6000F0907C0000917A0047B118B180917A0011
:102C700086FDFCCF80E008C0D901A80FB11DA80FC8
:102C8000B11D1D921C928F5F90858917A8F397B193
:102C900082A18095892387B998B182A180958923E3
:102CA00088B987E880937A00C0E028C0DF01A50FCB
:102CB000B11D51968C91806480937C0080917A0044
:102CC000806480937A0080917A0086FDFCCF6091C9
:102CD000780070917900D901A50FB11DA50FB11D24
:102CE0008D919C911197860F971F8D939C935F5F99
:102CF00001C050E080855817C8F2CF5F81A1C81786
:102D0000C0F3E12C13C0C22FD32FCE0DD11DCE0D99
:102D1000D11D61A170E0CB0195958795A881B981FE
:102D20008A0F9B1FCAD279836883E3948085E81653
:102D300050F3F0927C0000937A0018B947B9CDB7F0
:102D4000DEB7E6E046C3A0E2B0E0E8EAF6E124C37D
:102D50008C017B01D42E842F8150823010F4C80165
:102D600038DED80150968C91B70181110DC0C80191
:102D700093DEC8011ADEB2E0DB1238C0BE016F5F1D
:102D80007F4FC80189DE30C0C80162DFC8010DDE97
:102D9000E2E0DE122BC0BE016F5F7F4FC80158DF3B
:102DA00023C0842F90E0880F991FF701E80FF91FC7
:102DB00021E030E02C0F3D1F820F931FD8011E969B
:102DC0002D913C911F97DC018D919C91281B390B13
:102DD00080819181820F931F918380834F5FF801DF
:102DE00080854817F0F202C040E0F9CFA096E7E0F6
:102DF000EFC2A0E0B0E0EEEFF6E1CCC2EC018B0157
:102E0000B42E82E0481711F041110AC08C819D81D7
:102E1000892B09F494C08E819F81892B09F48FC07E
:102E20008B2D8150823050F488819981892B09F44F
:102E300086C08A819B81892B09F481C04B2DB80102
:102E4000CE0181DF780100E010E0C12CD12C71C0EF
:102E5000A1E0BA120AC0EA81FB81E00FF11F0190E4
:102E6000F081E02DA881B9810CC08C819D81B110C9
:102E70000DC0EE81FF81E00FF11F0190F081E02D88
:102E8000DC01A00FB11F8D919C9129C0FC01E00FC6
:102E9000F11F20813181E881F981E00FF11F40812C
:102EA00051818E859F852417350720F0840F951F4B
:102EB000821B930BEE81FF81E00FF11F2081318196
:102EC000EA81FB81E00FF11F40815181EE85FF8592
:102ED0002417350720F0E40FF51FE21BF30BE81B66
:102EE000F90B99F0D7012D913C9140E050E0281B5F
:102EF000390B41095109A8EEB3E0C3D19F0140E06D
:102F000050E024D237FD0AC002C020E030E0293E64
:102F1000B3E03B072CF028EE33E002C020E030E0C5
:102F2000F701219331937F01FFEFCF1ADF0A0E5F84
:102F30001F4F888590E0C816D9060CF489CFCDB70D
:102F4000DEB7E9E043C2A0E0B0E0E8EAF7E119C289
:102F5000EC018B01822E4DDF2884E801412C512C9D
:102F6000320100E010E0C12CD12C7601312C912CE3
:102F700088EEA82E83E0B82E25C0988189812296FC
:102F8000E92FF82F882021F0C5018E1B9F0BFC0133
:102F9000E93CF10524F4E333F1056CF002C033247D
:102FA0003394DF01A301920176D1C60ED71EE81E2D
:102FB000F91E0E0F1F1F939498EE490E93E0591EB1
:102FC000611C711C9210D9CF31101DC0892D90E069
:102FD000019744EF51E0849F9001859F300D949FAD
:102FE000300D11244091A0025091A10242175307C5
:102FF000ACF048EE53E0849F9001859F300D949F84
:10300000300D11240DC0980140E050E0C701B60119
:103010007BD12093A0023093A10202C020E030E0D7
:10302000C901CDB7DEB7E2E1C8C1A2E6B0E0EAE18E
:10303000F8E1A8C18C014B015A01322EDA018D91C1
:103040009C91892B31F0F40180819181892BE9F4E5
:103050001FC0D80118968C9190E0880F991FCED18F
:10306000F50191838083009709F4BFC0FC0180E0E3
:1030700090E003C0119211920196D80118962C91FC
:1030800030E082179307B4F3DECFE12CF12C20C09F
:10309000F801808590E0880F991FB0D1D4018D93FD
:1030A0009C93009709F4A1C0FC0180E090E008C067
:1030B000D8011E962D913C911F9721933193019633
:1030C000D80118962C9130E0821793078CF3DDCF4E
:1030D000432DBE016F5B7F4FC80135DEF801408490
:1030E000512C66246394712C6C0E7D1EFE01EF5BE7
:1030F000FF4F9E012F5D3F4FC901A3967FAE6EAE7D
:10310000A39740E050E035C0E114F104A1F0DC01E8
:10311000CD90DC9060817181C616D70660F0A396D1
:10312000AEADBFADA397CD90DC90608171816C1581
:103130007D0548F010C060817181DC016D937C9346
:10314000E114F10461F760817181A396AEADBFAD6A
:10315000A3976D937C934F5F5F4FA3966EAD7FAD4A
:10316000A3976E5F7F4FA3967FAF6EAFA397329604
:1031700002964415550544F27FEFE71AF70A8AE0F4
:10318000E816F10409F0A4CF80E090E07E01A1E20E
:10319000EA0EF11C24C0F301619171913F01A90174
:1031A0004E195F09D501ED91FC91E40FF51FA08147
:1031B000B181A617B70710F471836083F90161919B
:1031C00071919F01D401ED91FC91E40FF51F4081B5
:1031D00051816417750710F4718360830196F801BB
:1031E000408550E084179507B4F2CE59DF4FE1E1F6
:1031F000E5C01F93CF93DF93EC01162F862F8150EC
:10320000823018F0662351F012C0AE014E5F5F4F5E
:1032100021E0BE01CE0109DF123049F4AE014A5F60
:103220005F4FBE016C5F7F4F20E0CE01FEDEDF917D
:10323000CF911F910895CF93DF93EC018A819B81F9
:10324000009709F076D18E819F81009709F071D1A6
:1032500088819981009709F06CD18C819D810097BC
:1032600009F067D1DF91CF910895A29FB001B39F7C
:10327000C001A39F01D0B29F700D811D1124911D2B
:103280000895F3DFA59F900DB49F900DA49F800D2E
:10329000911D11240895B7FFF4CFF3DF821B930B28
:1032A0000895991B79E004C0991F961708F0961BA2
:1032B000881F7A95C9F780950895AA1BBB1B51E119
:1032C00007C0AA1FBB1FA617B70710F0A61BB70B96
:1032D000881F991F5A95A9F780959095BC01CD013B
:1032E000089597FB072E16F4009406D077FD08D0BA
:1032F000E4DF07FC05D03EF4909581959F4F08953B
:10330000709561957F4F0895A1E21A2EAA1BBB1BF1
:10331000FD010DC0AA1FBB1FEE1FFF1FA217B307A1
:10332000E407F50720F0A21BB30BE40BF50B661FB7
:10333000771F881F991F1A9469F76095709580957B
:1033400090959B01AC01BD01CF010895052E97FB1F
:1033500016F4009406D057FD0CD0D6DF07FC09D038
:103360007EF490958095709561957F4F8F4F9F4F1C
:10337000089550954095309521953F4F4F4F5F4FA1
:1033800008952F923F924F925F926F927F928F9209
:103390009F92AF92BF92CF92DF92EF92FF920F93E4
:1033A0001F93CF93DF93CDB7DEB7CA1BDB0B0FB6EE
:1033B000F894DEBF0FBECDBF09942A8839884888AB
:1033C0005F846E847D848C849B84AA84B984C88441
:1033D000DF80EE80FD800C811B81AA81B981CE0F38
:1033E000D11D0FB6F894DEBF0FBECDBFED0108951D
:1033F000EE0FFF1F0590F491E02D09940F931F939A
:10340000CF93DF938230910510F482E090E0E09159
:10341000A802F091A90220E030E0C0E0D0E023C093
:103420004081518148175907A8F04817590761F49E
:1034300082819381209719F09B838A832EC0909379
:10344000A9028093A80229C02115310529F042174D
:10345000530710F0A90102C0BE01DF0102811381F0
:10346000EF019A01F8013097D9F62115310509F1DC
:10347000281B390B2430310590F412968D919C91C4
:1034800013976115710521F0FB019383828304C0BA
:103490009093A9028093A802FD01329644C0FD01D9
:1034A000E20FF31F81939193225031092D933C93A6
:1034B0003AC02091A6023091A702232B41F420911B
:1034C0003201309133013093A7022093A60220915C
:1034D0003001309131012115310541F42DB73EB74E
:1034E0004091340150913501241B350BE091A60227
:1034F000F091A702E217F307A0F42E1B3F0B281749
:10350000390778F0AC014E5F5F4F2417350748F05C
:103510004E0F5F1F5093A7024093A6028193919391
:1035200002C0E0E0F0E0CF01DF91CF911F910F9159
:103530000895EF92FF920F931F93CF93DF9300971D
:1035400009F48EC0DC01129713961C921E921297FA
:10355000E090A802F090A902E114F10489F42D9101
:103560003C911197280F391F8091A6029091A702D4
:103570008217930789F5B093A702A093A60270C0A3
:10358000E70120E030E001C0EA01CA17DB0738F4A8
:103590004A815B819E0141155105B1F722C0AC0102
:1035A00042505109FA01D383C28300811181BC01C9
:1035B000600F711F6C177D0761F468817981600F5E
:1035C000711F6E5F7F4F718360836A817B8173831C
:1035D00062832115310529F4B093A902A093A802B2
:1035E0003FC0F901B383A283E90149915991C40F06
:1035F000D51FAC17BD0771F4DC019E918E91840F2D
:10360000951F02969183808312968D919C911397BA
:1036100093838283A0E0B0E002C0D7017C01F70170
:10362000828193810097C9F7C70102962081318179
:10363000820F931F2091A6023091A7022817390705
:1036400079F4109729F41092A9021092A80204C0EC
:1036500013961C921E921297F092A702E092A60275
:10366000CDB7DEB7E6E0B5CE14E0CEEAD4E003C0D5
:10367000FE01C0DE2296C03BD107D1F7F894FFCF00
:10368000013C3C3B04360415042A0423041D040FAA
:103690000406040204FB03F203E903E4030100014E
:1036A0000101881301040400D007F4010F0008028F
:1036B0000000AA022000200000010203040506FF0A
:1036C000200000010203030405FF0D7602240A21F5
:1036D0000632053E04F0038702F60816086807A5BF
:1036E000057205DF069C01B501CF01EA010702263C
:1036F00002470269028E02B502DE020A030E0F10B3
:1037000011126D560049522D002020430020202028
:10371000005072657373204200476F210052656448
:103720002020003E63333200477265656E003E3EE6
:0C37300061333200536F6C766564210039
:00000001FF
